:1000000000800010C5000000190100001B01000065
:100010001D0100001F01000021010000BE79FFEF5B
:1000200000000000000000000000000025010000AA
:10003000270100000000000029010000610200000B
:100040002D0100002D0100002D0100002D010000F8
:100050002D010000890500002D0100002D01000088
:100060002D0100002D0100002D0100002D010000D8
:100070002D0100002D0100002D0100002D010000C8
:100080002D0100002D0100002D0100002D010000B8
:100090002D0100002D0100002D0100002D010000A8
:1000A000555200002D0100002D0100002D0100001F
:1000B0002D0100002D0100002D0100002D01000088
:1000C0002D0100000C4880470C490D4A0D4B9A4207
:1000D0003EBF51F8040B42F8040BF8E700200A4930
:1000E0000A4A91423CBF41F8040BFAE708488047AE
:1000F00008480047FEE7000031010000E06B000007
:10010000000000101000001010000010202300104C
:100110000D47000059020000FEE7FEE7FEE7FEE79C
:10012000FEE7C046FEE7FEE7FEE7FEE7FEE700006B
:1001300082B0002301E0019B01330193019A024B3D
:100140009A42F8D902B070471FA1070010B50120EC
:100150004FF0007104F09EFC10BDC04670B5324EE9
:100160008AB004F041FB04F057FBF3684FF6FF023E
:1001700003EA02022D4B002042EA0303F36004F07D
:1001800067FB2B4B6C461D460FCD0FC495E80F0047
:10019000002584E80F00192301240DF123008DF8B8
:1001A00024308DF825508DF827508DF826508DF885
:1001B000234004F019FC4FF000712246204604F061
:1001C00043FC684601F040FAFFF7C0FF00F08CF8EE
:1001D000184800F0ABF9184800F0A8F9174A184B76
:1001E00018481A60184A194B1A6000F093FA184B15
:1001F0004FF47A721B68B3FBF2F3013BB3F1807FDB
:100200000BD2144A23F07F43013B53606FF0070386
:1002100086F823300F339560136000F059F80028FA
:10022000FBD100F0C7FBFEE700ED00E00005FA059A
:10023000685D0000005D00002C5D000025050000E9
:10024000BC040010525D00002D040000B804001032
:100250000800001010E000E010B5FFF77FFF10BDB0
:10026000164A10B513680133B3F5FA7F136013D93A
:1002700000231360124B1B6813B1FFF767FF04E004
:1002800001204FF0007104F001FC0D4A1368D3F116
:10029000010338BF002313600A4A13680133092B96
:1002A000136003D90023136003F0D2FD00F016FBA6
:1002B000054A13680133136010BDC04618000010D2
:1002C0001000001014000010B4040010FEE7C04637
:1002D00010B5044804F096FC012814BF002001204A
:1002E00010BDC04600C000402DE9704787B00DF139
:1002F0000F0400264FF0010820464FF0020A01AD1E
:100300004FF003098DF811808DF813608DF812609D
:100310008DF810A08DF80F6004F066FB2046224C8B
:100320008DF8109004F060FB284604F02BFC4FF48D
:10033000E1332946204605AD019304F0CFFD284660
:1003400004F086FC2046294604F062FC2046314633
:10035000164A04F0FFFC20464146154A04F0FAFC18
:10036000144A2046494604F0F5FC2046414604F074
:1003700077FC20463146424604F014FC42462046B3
:10038000514604F00FFC0C4B0C4A1E700C4B9E6047
:10039000DE601E605E60482382F805332023136010
:1003A00007B0BDE87087C04600C0004041050000AE
:1003B00035040000CD0200001C00001000E100E048
:1003C0002000001013B502220DF10600144905F0BB
:1003D00067FC00210A46134804F0E4FB12498A68CE
:1003E000CB6802F0FF0203F0FF039A4201D1002420
:1003F0000BE0CB6801245B1893F810318DF80630C0
:10040000CB68013303F0FF03CB60064800210122D3
:1004100004F0C8FB002CDCD09DF806001CBDC046D3
:10042000885D000000C000402000001010B5FFF7FC
:10043000C9FF10BD10B51E480121002204F0B2FB17
:100440001B4804F0DFFB0128FAD00EE0636804F1DA
:100450001001591816480122002304F00DFC68B160
:100460006368013303F0FF036360124C2268636822
:1004700002F0FF0203F0FF039A42E7D10D4B0E4C4E
:100480001A685B6802F0FF0203F0FF039A4207D18B
:1004900007480121002204F085FB0023237005E0BA
:1004A0000121217002480A4604F07CFB10BDC046C1
:1004B00000C00040200000101C00001013B58DF893
:1004C000060001210022144804F06CFB13494A681D
:1004D0000B6802F0FF02013303F0FF039A4201D1DF
:1004E00000240AE00B689DF806205B181A740B685C
:1004F0000124013303F0FF030B60094B1B7813B990
:10050000FFF798FF04E0012103480A4604F04AFB84
:10051000002CD6D01CBDC04600C0004020000010FA
:100520001C00001010B5FFF7C9FF10BD10B5044640
:1005300001E0FFF7C3FF14F8010B0028F9D110BD4B
:1005400007B50F480DF107010122002304F0D6FB87
:10055000A8B10C49CA688B6802F0FF02013303F0AE
:10056000FF039A42EDD08B689DF807205B1883F853
:1005700010218B68013303F0FF038B60E1E70EBDB0
:1005800000C000402000001010B504F009FC10BDB0
:100590000A2810B5044603D1044B0D201B68984768
:1005A000024B20461B68984710BDC046BC04001093
:1005B00010B5044602E00134FFF7EAFF2078002876
:1005C000F9D110BD002330B50B600C4601E04B1C87
:1005D000036001680A78202AF9D02D2A01D000256D
:1005E00003E04B1C03604A780125302A1DD10368C3
:1005F000591C01605A78622A07D0782A0BD14B1C0B
:1006000003604A784FF0100E16E04B1C03604A78E6
:100610004FF0020E10E0202A29D9A2F13003DBB2FC
:10062000092B26D84FF0080E06E0A2F13003DBB20A
:10063000092B1ED84FF00A0E002113E0602A84BF58
:10064000A2F12003DAB2A2F13003DBB2102B01D900
:10065000073BDBB273450CD202680EFB0131531C21
:1006600003605278202AE9D805B14942216001206F
:1006700000E0002030BDC0462DE9F04106460F469F
:100680000025124B1B6898470446E8B10D2815D089
:10069000082809D1002DF4D0FFF77AFF2020FFF7BA
:1006A00077FF013D204606E01F28EADD7B1E9D42C4
:1006B000E7DA70550135FFF76BFFE2E700230A2008
:1006C0007355FFF765FF0120BDE8F081B804001005
:1006D0000246002000E00130835C002BFBD1704714
:1006E000024611F8013B02F8013B002BF9D170479B
:1006F000002301E019540133013AFBD27047C04690
:1007000003E0CBB29A4204D001300278002AF8D13B
:10071000104670470FB42DE9F04186B00CAB53F88A
:10072000046B0593A7E00136252847D1334613F81B
:10073000010B302801D0002702E070780133012737
:100740001A464FF0000806E00A2308FB030312F8DC
:10075000010CA3F13008A0F13003DBB216460132E0
:10076000092BF1D96C2801D04C2803D1307847F0FF
:1007700002071646002800F0828060288ABFA0F198
:1007800020030146D9B24F291ED006D8432911D0E3
:1007900044291CD0422914D010E0552917D05829DB
:1007A00018D053290AD1059A131D10680593FFF735
:1007B000FFFE60E0059A131D10780593FFF7E8FE31
:1007C00059E04FF0020E07E04FF0080E04E04FF042
:1007D0000A0E01E04FF0100E17F0020F06D0059A36
:1007E000131D4429059314680BD00FE04429059A82
:1007F00003D1131D0593146803E0131D05931468BA
:1008000004E0002C02DA644247F004070025B4FB40
:10081000FEF10EFB1143DAB2092A0C4606D9D31DAC
:10082000DAB2782804BF02F12003DAB2303201AB29
:10083000EA54013509B1102DE9D117F0040F0FD09A
:1008400006AB5A192D2302F8143C013508E017F0C5
:10085000010F0CBF20203020FFF79AFE08F1FF386F
:100860004545F4D301AB5C1914F8010DFFF790FE78
:1008700001AB9C42F8D1307800287FF454AF06B029
:10088000BDE8F04104B0704770B506461148154602
:100890000024FFF73FFF04E0A15D0F48FFF73AFF98
:1008A0000134AC42F8DB2020FFF772FE00240AE09E
:1008B000A35D0134A3F12000C0B25E2894BF1846A6
:1008C0002E20FFF765FEAC42F2DB0A20FFF760FE48
:1008D00070BDC0468A5D0000915D0000024A136849
:1008E000013313607047C046700B0010014610B50D
:1008F000084A002005E012F8013B002BFBD1431C05
:10090000D8B2884202D01378002BF4D10248FFF706
:1009100001FF10BD975D0000685E0000F0B5054660
:100920008BB001A8294602F045FE0346002836D1C7
:100930002846FFF7CDFEC6B226E02E2A24D0A169B4
:1009400004F109020B78002B08BF1146237A13F03B
:10095000100F10D0134AA8191388013001331380E7
:100960002F23AB55FFF7BCFE2846FFF7D7FFAF5547
:100970000346A0B908E00C4A0C49138801331380E0
:100980000A6823689B180B60094C01A8214602F0F5
:1009900013FB0346074610B9627A002ACDD11846E8
:1009A0000BB0F0BD6C0B00106E0B0010BC1E0010E5
:1009B0004C0B00102DE9F04FA0489FB0FFF7F8FD59
:1009C0009F48FFF7F5FD9F4840F2E441FFF7A2FE84
:1009D0009D4B9E4A4FF4805B9A614FF48072DA61BE
:1009E00000220B929A4C3E20FFF7D2FD20464FF496
:1009F0008061FFF741FE234613F8012B662A1C9302
:100A000000F0ED8107D8622A00F00581642A37D012
:100A10003F2A06D0E6E76D2A07D0742A00F06C85DD
:100A2000E0E78C48FFF7C4FDDCE76278A31C642A8A
:100A30001C93D7D11CAC20461BA9FFF7C3FD00288F
:100A4000D0D020461AA9FFF7BDFD08B980231A931C
:100A50001B9B1C930AE01C9810220146FFF714FF11
:100A60001C9B10331C931A9B103B1A931A9A0F2A43
:100A7000F1DC002AB6D01C980146FFF705FFB1E76C
:100A80006178A31C69291C9333D0732941D0642950
:100A9000A8D11CAC20461BA9FFF794FD0028A1D0CB
:100AA00020461AA9FFF78EFD08B90B9B1A936A4ED0
:100AB0009DF86C0031461A9A012303F073F904463D
:100AC00010B16648214621E01A9D65482946FFF786
:100AD00021FE1C96214610221C98FFF7D5FE1C9B78
:100AE00010341033B4F5007F1C93F3D101350B950E
:100AF00078E71CA81BA9FFF765FD00283FF472AF3B
:100B00009DF86C0003F07CF981B25448FFF702FEB7
:100B100068E71CA81BA9FFF755FD00283FF462AF4A
:100B20001AAC9DF86C000121224603F0EFF818B9C9
:100B30004C481A99FFF7EEFD9DF86C0002211DAAA2
:100B400003F0E4F820B94848BDF87410FFF7E2FD5F
:100B50009DF86C000321224603F0D8F818B94348E9
:100B60001A99FFF7D7FD9DF86C000A210DF1770265
:100B700003F0CCF820B93E489DF87710FFF7CAFD86
:100B80009DF86C000B21344A03F0C0F8044638B9D4
:100B90003848FFF70DFD304821461022FFF774FE5C
:100BA0009DF86C000C212C4A03F0B0F8044638B9CB
:100BB0003148FFF7FDFC284821461022FFF764FE6C
:100BC0009DF86C000D21244A03F0A0F8044638B9C2
:100BD0002A48FFF7EDFC204821460422FFF754FE87
:100BE0009DF86C000E211C4A03F090F80446002882
:100BF0007FF4F8AE2248FFF7DBFC189407E01648B4
:100C000010220818FFF740FE189B1033189318990C
:100C10003F29F4D9E6E66178A31C66291C9300F00D
:100C2000CF8004D864292DD065294AD0DAE672290C
:100C300000F08680772900F0A280D3E6755E000080
:100C4000A15E0000AD5E00004C0B0010981D00106E
:100C5000C01E0010BE5E0000740B0010F0620000A9
:100C6000F7620000036300001C6300002D630000B6
:100C70004C6300005E630000646300006A63000070
:100C8000706300001CA81BA9FFF79CFC00283FF420
:100C9000A9AE1B9B9F4A1C469A1820231C921693B0
:100CA0000BE021461C981022FFF7EEFD169B103436
:100CB000013B16931C9B10331C93169B002BF0D109
:100CC00090E61CAC20461BA9FFF77CFC00283FF4F3
:100CD00089AE20461AA9FFF775FC60B11B9B1A99D3
:100CE0008C4A1CA8D15401331AA91B93FFF76AFC44
:100CF0000028F3D176E61B9B864D874C99B2EA5CBF
:100D00008648FFF707FD20464FF48061FFF7B4FCEB
:100D100023781C942E2B3FF465AE1F2B01D81B9B10
:100D200007E01CA81AA9FFF74DFC28B11B9B1A9AD3
:100D3000EA5401331B93DEE77948FFF739FCDAE721
:100D40001CAC20461BA9FFF73DFC00283FF44AAE2F
:100D500020461AA9FFF736FC00283FF443AE204690
:100D600019A9FFF72FFC08B9012319939DF86C000E
:100D700068491A9A9DF8643003F014F81DE01CAC21
:100D800020461BA9FFF71EFC00283FF42BAE20468F
:100D90001AA9FFF717FC00283FF424AE204619A932
:100DA000FFF710FC08B9012319939DF86C0059490D
:100DB0001A9A9DF8643002F0D5FF01465948A5E61D
:100DC0001CA81BA9FFF7FEFB00283FF40BAE9DF803
:100DD0006C104FF480524F48FFF78AFC02E66378AC
:100DE000A21C613B1C92192B3FF6FCAD01A252F8EC
:100DF00023F0C0468D120000E50900008F100000AE
:100E0000C310000097100000E5090000391400002D
:100E1000E50900005D0E0000471400007F1200008D
:100E2000490F00005F14000033120000671000003B
:100E3000E5090000E509000017110000830E00001D
:100E4000C712000065120000731200007F1100003D
:100E50006F130000E5090000D91400001CA81BA9AD
:100E6000FFF7B0FB00283FF4BDAD1B9A2E494FF4AD
:100E70000D73D0B202FB031100F078FC12E3431CA7
:100E80001C931C980378202BF9D01AA915AA01F0FD
:100E90006DFA0746002840F005831598234A037829
:100EA000C469456A866A03F00303B0F808E0D0F825
:100EB00020C0D15C023C8278C378C06A029403955A
:100EC00004961B4D1B4E1C4C059052021B48CDF83E
:100ED00000E0CDF804C0FFF71DFC37802F802760AD
:100EE0001C98FFF71BFD002840F0DC82159829882C
:100EF00085782268C4691A986D0800FB05F0023CE9
:100F000004FB05F4338801900D480094FFF702FCC0
:100F100068E5C046740B0010C01E00107C63000022
:100F2000876300008C630000C00400100A660000A4
:100F30006E0B00106C0B0010BC1E001093630000C1
:100F40005D6400004B1C1C931C990B78202BF9D07E
:100F5000A14802F02FFB002840F0A48217901890BF
:100F60001B909E4C9C48214602F026F8002864D134
:100F7000637A002B61D0237A13F0100F03D0179BF4
:100F80000133179306E0189B2268013318931B9BCB
:100F90009B181B93914D287AAE8810F0100F0CBF50
:100FA0002D21442110F0010F0CBF2D22522210F0F0
:100FB000020F0CBF2D23482310F0040F0CBF4FF07D
:100FC0002D0A4FF0530A10F0200F0CBF4FF02D09DF
:100FD0004FF04109700AEC8800F5F66055F809CB2E
:100FE0000C304FEAD42EC6F34318029006F01F06C9
:100FF0007B48C4F34514CDF814E0CDF81CC0CDF8FF
:1010000000A0CDF80490CDF80C80049606940895C5
:10101000FFF780FB2846FFF75BFB1A9005E02020D6
:10102000FFF7B6FA1A9B01331A931A9B0D2BF6DDC4
:101030006C486D49FFF76EFB93E76C4818991B9A53
:10104000179BFFF767FB1C981BA915AA01F08EF9E7
:1010500000287FF4C7AC159B1B999B784902644814
:1010600003FB01F152E51CA81BA9FFF7ABFA00280E
:101070003FF4B8AC01E04B1C1C931C990B78202B5F
:10108000F9D09DF86C205B4802F05CFD0AE25948FB
:1010900001F00AFF06E21CA81BA9FFF793FA00283B
:1010A0003FF4A0AC534D1B99284601F025FB0446A4
:1010B000FFF71CFC002C7FF495ACA9684E480A464B
:1010C0005AE01CA81BA9FFF77DFA00283FF48AAC60
:1010D000484B9C681BE00F2A04D910231693A2F1F9
:1010E000100301E0169200231B9342484349169ACD
:1010F00016AB01F0B1F9002840F0D481169A002A0D
:101100003FF470AC21463D48FFF7BEFB10341B9AFC
:10111000002AE0D166E41CA81BA9FFF753FA0028B7
:101120003FF460AC364B00221A921A6019E05B451E
:101130002BBFCBEB03031693CDF858B000231B93C2
:101140002C482E49169A17AB01F086F910B1FFF71B
:10115000CDFB09E0179B1A9AD2181A92169A9A4256
:1011600002D11B9B002BE2D1254B1A991A6812B1B0
:101170001B68B1FBF3F22348FFF7CCFA32E41CAC56
:1011800020461BA9FFF71EFA00283FF42BAC20468F
:101190001AA9FFF717FA00283FF424AC5A4617485B
:1011A0009DF86810FFF7A4FA154B00221A921A60F6
:1011B00031E05B452BBFCBEB03031693CDF858B062
:1011C00000231B930B480D49169A17AB01F040FB07
:1011D000D0B1FFF78BFB21E0981E00104C0B0010E4
:1011E000AB640000715E0000981D0010D664000022
:1011F000FF6400002809001013650000740B001044
:10120000700B001024650000179B1A9AD2181A92CE
:10121000169A9A4202D11B9B002BCAD1A34B1A9952
:101220001A6812B11B68B1FBF3F2A148A4E7431C92
:101230001C931C980378202BF9D02021FFF760FA2B
:10124000014600283FF4CEAB002301F8013B00E04B
:1012500001310B78202BFBD01C9802F0FBFA21E126
:10126000431C1C931C980378202BF9D002F032F910
:1012700018E1904801F018FD14E1431C1C931C98E0
:101280000378202BF9D002F07DFB0BE11CAC20464B
:101290001BA9FFF797F900283FF4A4AB20461AA931
:1012A000FFF790F900283FF49DAB01E0431C1C932D
:1012B0001C980378202BF9D09DF86C109DF86820BD
:1012C00002F0D4F8EEE01CAC0DF16C08204641466B
:1012D000FFF778F900283FF485AB1AAF204639466E
:1012E000FFF770F900283FF47DAB19AE2046314678
:1012F000FFF768F900283FF475AB1B9B1A9AA3F51A
:10130000F66302F00F020C3B520142EA4322199BA2
:10131000694D03F01F031A43AA8020464146FFF798
:1013200051F900283FF45EAB20463946FFF74AF9F1
:1013300000283FF457AB20463146FFF743F9002819
:101340003FF450AB1B9A1A9B02F01F0203F03F03BD
:10135000D20242EA4312199B1C98C3F344031A4376
:10136000EA80294602F04CF89CE0431C1C931C9830
:101370000378202BF9D02021FFF7C2F9014600287D
:101380003FF430AB002301F8013B0D4600E001358E
:101390002B78202BFBD049481C99FFF7BBF9454817
:1013A0001C99012202F0CEFB04460A20FFF7F0F858
:1013B0000CB1204676E042482946FFF7ABF9414898
:1013C00029460A2202F0BEFB04460A20FFF7E0F895
:1013D00024B12046FFF78AFA364827E03A48FFF75B
:1013E00099F9324B1B941C60324838495A4618AB65
:1013F00001F032F870B9189A62B117AB314833492D
:1014000001F026FA1B9B179A9B181B9310B9189B87
:101410009A42E9D2254B1B991A682D48B1FBF2F28A
:10142000FFF778F9234801F03FFD264801F03CFD25
:10143000FFF7D8BA431C1C931C980378202BF9D0D3
:1014400002F0F0F82EE01CA81BA9FFF7BBF800285B
:101450003FF4C8AA9DF86C0000F09CF922E01CAC97
:1014600020461AA9FFF7AEF800283FF4BBAA204691
:1014700019A9FFF7A7F800283FF4B4AA1548FFF709
:1014800049F91C984FF48061FFF7F6F81C9B1B7814
:10149000592B7FF4A7AA00209DF86810BDF864209E
:1014A00000F082F9FFF722FAFFF79CBA700B0010E8
:1014B00045650000280900104C0B0010696500000C
:1014C00076650000741B001084650000740B00102A
:1014D00094650000B76500001CA81BA9FFF772F80F
:1014E00030B11B9B002B03DDB3F5805F98BF9B469B
:1014F00023485946FFF70ABB1CAC1BAD20462946C2
:10150000FFF760F858B3BDF86C30294620461493B5
:10151000FFF758F89DF86C30294620461393FFF7E3
:1015200051F89DF86C30294620461093FFF74AF891
:101530009DF86C30294620460F93FFF743F89DF83D
:101540006C30204629460E93FFF73CF800283FF404
:1015500049AA9DF86C300DA80D9300F039F80DA83C
:1015600000F012F80F9B074800930E9B149901930B
:101570000D9B139A0293109BFFF7CCF8FFF732BA3A
:10158000E8650000F165000010B5104C6269A169C2
:1015900063699A42F9D1A3699942F6D102F03F03F7
:1015A0000360C2F305234360C2F30443836001F088
:1015B0001F03C360C1F303238361C1F30B43C36102
:1015C00094F85C00C0F3001010BDC046004002401B
:1015D00070B5074C05460021204603F0C3FD2046A8
:1015E000294603F0C9FD2046012103F0BBFD70BD73
:1015F0000040024070B50021C0F1FA740546114860
:1016000003F0E2FD04F1FA03B3F5FA7F02D80D48C6
:10161000002114E0FA2C06DD4FF0FA710948B1FB05
:10162000F4F1002207E0A5F1FA734FF0FA710548D2
:10163000B1FBF3F1012203F0D1FD0248012103F0D7
:10164000C3FD70BD0040024070B50A4C05462046FF
:1016500003F0D2FD102384F85C304FF0FA70FFF7EE
:10166000C9FF2046294603F087FD2046012103F0EB
:1016700079FD70BD0040024000B54FF0000E05E05E
:101680001EF801300EF800300EF1010E013AF7D2CB
:1016900000BDC046002301E019540133013AFBD2DA
:1016A0007047C046034600E00133187808B188420D
:1016B000FAD17047C3690239023B994201D3002035
:1016C00003E08278C36A02FB0130704773B51C46A1
:1016D00015460B220646FFF7CFFF052C0AD92946EF
:1016E000E3030A8843EA54039B189CB231F8023F93
:1016F000002BF5D1072104F00F0303F13002392A42
:1017000088BF07320DF8012001392409F3D102AB5B
:101710005A187E2302F8083C224600E001328A4231
:1017200001DBB01803E0935D202BF7D1F9E707291F
:1017300001DD202304E002AC631813F8083C0131FA
:101740000132072A00F8013BF1DD7CBD10B50B2109
:1017500004460020C30114F8012B43EA50039B18F0
:1017600011F1FF31D8B2F5D110BDC046012810B536
:1017700001D90B200BE0064C54F820200AB10023BD
:10178000137009B100230B7044F82010002010BD25
:1017900034040010012801D90B2002E0014B18701D
:1017A00000207047320200102DE9F04F012889B067
:1017B00081460F46154601D90B20C1E2A44B53F8D0
:1017C00020400CB90C20BBE20023237002F018FB70
:1017D00010F0010F01D00320B2E210F0040F01D08D
:1017E0000A20ADE24846012106AA02F08FFA064619
:1017F000002840F09982069B7F2B40F29582012FB2
:1018000014BF4FF03F0B4FF0000BCBEB03016B1EEF
:101810002B42069100D175B94FF4FA63B1FBF3F294
:10182000304600E001308B4B33F810309A42F9D348
:10183000894B33F810506E0A01D1012602E0802E48
:1018400028BF8026B1FBF6F240F6F5739A4204D920
:1018500003F570439A4208D86EE2032302FB03F3B8
:1018600001335B08033301220CE0930003F500739E
:1018700007334FEA5328032200234FF0200A049332
:10188000019209E003F5FE7303334FEA5328202346
:1018900001924FF0010A04930AEB0B020392049A9F
:1018A00002EB0803039A9D18AB199942C0F03E82DF
:1018B0004846032107AA02F029FA002840F03482A2
:1018C000079A531EB3F5004F80F0308252425B19E5
:1018D00013405A1B019B0792032B04D10399924496
:1018E0008918039100E09044069A0499CAEB020318
:1018F000C8EB03035B1AB3FBF6F30593019B022BC2
:1019000002D140F6F57304E0019B032B05D14FF69D
:10191000F5730599994240F20982012F02D1F02214
:10192000029258E004F134070BEB0205384600211F
:101930004FF40072FFF7AEFE6FF07F0384F8F231D0
:1019400004F5F970813384F8F3318370013B84F836
:10195000F531424B9D420AD843F6C163B5FBF3F320
:1019600084F8F9319B0843F03F03837104E04FF0A2
:10197000FF33837184F8F9316FF001034371019BE8
:10198000032B06D0069BB3F5803F2CBF0623042310
:1019900000E00C23037100223F2303724272827223
:1019A000C272069BC3F3072103734173190C1B0E0C
:1019B000C373552380F840306FF05503817380F86E
:1019C000413039464846573302F0CCF9002840F000
:1019D000AB81F821029104F1340700214FF4007229
:1019E0003846FFF757FE6FF0140384F83430133392
:1019F00084F835306FF06F0384F83630703384F834
:101A0000373084F83F30023384F84030CAF307237C
:101A100084F84330012384F8416084F8443084F82A
:101A200042A0019A032A14BF4FF400760026330A1D
:101A300084F8463084F84560069AB2F5803F93B248
:101A40000ED21B0A84F8472084F8483013E0C046C1
:101A500034040010EA6600000E660000FF03FB007D
:101A60001B0A84F85530130C84F85630130E84F892
:101A7000542084F85730029B002584F849303F23D6
:101A800084F84C304FF0FF3384F84E304FEA1B435C
:101A900084F852304FEA1B6384F8533084F84D5079
:101AA00084F84F5084F850B084F8515002F012FE80
:101AB00001990790032983B24FEA10424FEA10615F
:101AC0001FFA88FE34D11B0A84F878304FEA1E23AF
:101AD00084F859304FEA184384F85A304FEA1863B3
:101AE00084F85B30022384F86030013B84F8643072
:101AF000053384F866306FF07F0384F87430A933BF
:101B000084F8770084F87A1084F8792084F8588073
:101B100084F8615084F8625084F8635084F865500A
:101B200084F8675084F8763004F17B00864918E029
:101B30001B0A84F85C304FEA1E2384F84B306FF0A8
:101B40007F0384F85E1084F858308049A93384F804
:101B50005B0084F85D2084F84A8084F85A3004F1F0
:101B60005F001322FFF788FD552384F832326FF0AF
:101B7000550384F83332484639465A46573302F003
:101B8000F1F8002840F0D080019A032A09D0002102
:101B900038464FF40072FFF77DFD019B032B08D1FF
:101BA0001DE0484639460BF10602012302F0DAF83F
:101BB000EDE70199664B029A012918BF6FF0FF0308
:101BC0001343C3F30722079384F8343084F8352095
:101BD0001A0C1B0E84F8362084F8373023E0029963
:101BE0005C4B41EA0303C3F30722079384F83430C4
:101BF00084F835201A0C1B0E84F8362084F8373010
:101C00000F224FF0FF3384F8383084F8393084F8ED
:101C10003A3084F83B2084F83C3084F83D3084F836
:101C20003E3084F83F2039464846039A012302F0AB
:101C300099F80146002877D1039A3846551C4FF48D
:101C40000072FFF727FD01230AE0484639462A467D
:101C5000012302F087F8002866D1079B0135013384
:101C60000793079B4345F0D362E00496049B0793D8
:101C700008E0484639462A46012302F073F8002856
:101C800052D10135079E731E0793002EF1D10199A1
:101C9000032940D1552384F832326FF0550384F87C
:101CA0003332A83384F8343084F835305E31412241
:101CB000203384F8361084F8183284F8193284F806
:101CC0001B1284F8372084F81A22059A3946531ECD
:101CD000C3F3072284F81C3284F81D221A0C1B0E51
:101CE00084F81F324FF0FF3384F81E2284F820322C
:101CF00084F8213284F8223284F823320BF1010275
:101D00000233484602F02EF8484639460BF10702E6
:101D1000012302F027F848463146324601F0F6FF2B
:101D2000003818BF01200BE0012009E00E2007E079
:101D3000019B032B99D099E7530004330222A1E5BC
:101D400009B0BDE8F08FC046A4660000B866000088
:101D500000FFFF0000FFFF0F10B560B1037853B123
:101D6000C3888B4207D1407802F03CF810F00100A4
:101D700018BF032000E0092010BDC04610B504467E
:101D80000A46407804F13401012302F00BF80146C1
:101D900008B1032033E094F8333294F8322242EA57
:101DA00003224AF655239A4201D0022027E094F8F4
:101DB0006C3094F86D201B0443EA026394F86A20A7
:101DC0000F48134394F86B2043EA022323F07F4328
:101DD000834201D1084612E094F8883094F88920B3
:101DE0001B0443EA026394F88620134394F8872087
:101DF00043EA022323F07F43181A18BF012010BDC5
:101E0000464154002DE9F041164602681378A3F1CB
:101E10003005092D05D853783A2B02D1931C036065
:101E200001E0BA4B1D78012D01D90B2079E1B84BA7
:101E300053F825400C600CB90C2072E123786BB18B
:101E4000607801F0CFFF10F0010F07D1002E00F0F5
:101E50005B8110F0040F40F0558155E10023E8B29A
:101E60002370607001F0CCFF10F0010501D0032059
:101E700057E11EB110F0040F40F04481204629467E
:101E8000FFF77CFF012801D0A84615E004F5F971A1
:101E90000B79002B00F044818B7A94F8FD211B0410
:101EA00043EA02630A7A2046134394F8FB2143EA8B
:101EB00002284146FFF762FF032801D1012030E1EB
:101EC000002840F02D8194F8402094F83F3043EAF8
:101ED0000223B3F5007F40F0238194F84B2094F85F
:101EE0004A3053EA022301D09EB20DE094F85A30F2
:101EF00094F85B201B0443EA026394F858201343D0
:101F000094F8592043EA022694F8445026626B1E46
:101F1000DBB2012BE57000F2038194F84120A2703E
:101F2000002A00F0FD80531E134240F0F98094F81F
:101F3000462094F8453043EA022010F00F0F20812C
:101F400040F0EE8094F8482094F8473053EA02229B
:101F500001D091B20DE094F8563094F857201B044C
:101F600043EA026394F85420134394F8552043EA5B
:101F7000022194F8432094F8423053EA022300F0FF
:101F8000CF8005FB06F69DB205EB10139819814230
:101F9000C0F0C680A3780A1AB2FBF3F2002A00F060
:101FA000BF8040F6F5739A4201D8012705E04FF64D
:101FB000F5739A4294BF0227032700EB0803911C94
:101FC000E362032F08EB0503E1616362228913D109
:101FD000002A40F0A58094F8623094F863201B0436
:101FE00043EA026394F86020134394F8612043EAC3
:101FF0000223A3628A000FE0002A00F09180F31808
:10200000022FA36201D14A0006E0032301FB03F380
:1020100001F0010202EB530202F5FE73226A033360
:10202000B2EB532F7CD34FF0FF3323610133032FE7
:10203000E3605AD1637194F8642094F86530607855
:1020400042EA03224244626104F13401012301F0B7
:10205000A9FE002849D194F8333294F8322242EA9A
:1020600003224AF655239A423FD194F8363094F829
:1020700037201B0443EA026394F83420134394F896
:10208000352043EA0223234A93422ED194F81A3290
:1020900094F81B221B0443EA026394F818221343AA
:1020A00094F8192243EA02231B4A93421DD194F863
:1020B000223294F823221B0443EA026394F820227C
:1020C000134394F8212243EA0223E36094F81E327A
:1020D00094F81F221B0443EA026394F81C22134362
:1020E00094F81D2243EA022323610C4B27701A88BF
:1020F000013292B21A800023E28023632371A3612C
:1021000018460EE00A200CE000200AE0320200101F
:102110003404001052526141727241613002001069
:102120000D20BDE8F081C0462DE9F041066B044664
:102130008E420F462BD00379E3B100F134084146BB
:1021400040783246012301F00DFEF0B9236A626A3D
:1021500020719B189E420DD2E57809E0236A6078D1
:10216000F61841460123324601F0FCFD6B1EDDB23C
:10217000012DF3D85FB1607804F134013A460123B0
:1021800001F010FE08B9276302E0012000E0002002
:10219000BDE8F08101292DE9F04705460C4690463F
:1021A00078D9C369994275D20378022B41D0032BA9
:1021B00052D0012B02D04FF0020E68E001EB510625
:1021C000416A01EB5621FFF7AFFF864600285ED13A
:1021D000F305DB0D05F13407F91814F001095FFA76
:1021E00088F206D0FB5C03F00F0343EA0213DBB274
:1021F00000E013460B70696A0123741C2B7128469A
:1022000001EB5421FFF790FF864600283FD1E305FC
:10221000DB0DF918B9F1000F02D0C8F3071206E080
:10222000FB5CC8F3032223F00F0343EA02020A70A7
:102230002DE0416A01EB1421FFF776FF864630BBA3
:102240006300DB05DB0D05F13401CA1801F80380DA
:10225000C8F3072353701AE0416A01EBD411FFF76A
:1022600063FF864698B9A200D205D20D05F134006D
:102270008118CB781B0603F0704343EA08038354AC
:10228000C3F307224A701A0C1B0E8A70CB7001230D
:102290002B7101E04FF0020E7046BDE8F087C0469A
:1022A00001292DE9F04104460E4658D9C3699942E7
:1022B00055D20378022B29D0032B38D0012B50D1D3
:1022C00001EB5105416A01EB5521FFF72DFF002875
:1022D00047D1EB05616ADB0D0135E318204601EBC0
:1022E000552193F83470FFF71FFF002839D1EB0513
:1022F000DB0DE31893F8343016F0010F47EA0320A2
:1023000001D000092FE00005000D2CE0416A01EB2F
:102310001621FFF709FF20BB7300DB0504F1340130
:10232000DB0DCA185278CB5C43EA02201BE0416AFD
:1023300001EBD611FFF7F8FE98B9B200D20534349C
:10234000D20DA1188B78C878A25C1B0443EA006305
:1023500013434A7843EA022323F0704003E001204C
:1023600001E04FF0FF30BDE8F081C0462DE9F74FA6
:1023700002AB43F8040D8B46154611461846002261
:10238000FFF740FD0446002863D12968CF690A6938
:10239000BB1E9A4202D8CBF800205AE091F800A068
:1023A000BAF1010F17D18046022628683146FFF79F
:1023B00077FFB0F1FF3F01D1012440E0012801D1B6
:1023C00002243CE008B908F101082B680136DB69FA
:1023D0009E42EAD333E0D1F8249080460646014677
:1023E0006EB928684946FFF79FFE08B1044626E00B
:1023F0002B6809F1010903F134014FF40076BAF1B9
:10240000020F91F801E0087807D150EA0E2E08BFBC
:1024100008F101080231023E0EE08B78CA781B04F5
:1024200043EA0263034343EA0E2323F070430BB9EC
:1024300008F101080431043E17F1FF37D0D12868B4
:10244000BAF1030FC0F8108001D101234371CBF81A
:1024500000802046BDE8FE8F2DE9F84F04469B46DC
:1024600000230D46CBF800300068A1881646FFF720
:1024700073FC002840F0AB80A37913F0800F27D1C4
:1024800013F0010F01D10720A1E0E368A268AA467A
:102490009B1A9E4234BFB146994693E0A268D30589
:1024A000DB0D002B73D120688378013B03EA5223B4
:1024B000DFB29FB90AB9206902E06169FFF7F0FE57
:1024C000012807D8A3796FEA43636FEA5363A371C6
:1024D00002207CE0B0F1FF3F06D0606125686169B1
:1024E0002846FFF7E7F838B9A37902306FEA43636B
:1024F0006FEA5363A3716AE05FEA592607EB0008AD
:102500001FD0AA78F319934288BFD61BF3B268781C
:102510005146424601F046FCA37900282ED113F023
:10252000400F0CD0A369C8EB0300B04207D20AEBFE
:10253000402004F124014FF40072FFF79DF875026A
:1025400035E0A37913F0400F0BD00123687804F134
:102550002401A26901F006FCA37978B923F04003B5
:10256000A371A369434510D0236804F1240158786E
:102570004246012301F016FC38B1A3796FEA4363A8
:102580006FEA5363A371012021E0C4F81880A168A9
:102590005046C905C90DC1F50073994534BF4D4674
:1025A0001D4604F1240359182A46FFF765F8A3686D
:1025B000AA445B19A360DBF80030C5EB09095B197D
:1025C000CBF80030B9F1000F7FF468AF4846BDE8A2
:1025D000F88FC04670B505460E46E980816801292E
:1025E00039D00268D369994235D271B91378032B77
:1025F00001D1916A49B90023EB601389B3422AD90A
:10260000936A03EB16132B611CE093781C0110E016
:102610002868FFF745FEB0F1FF3F014601D10120D8
:102620001AE0012817D92B68DB69984213D2331BB3
:102630009EB2A642ECD2E9602868FFF73BF8340965
:1026400024182C612B6806F00F02343303EB42137D
:102650006B61002000E0022070BDC0462DE9F04112
:1026600006460F4629B9C5687DB1C3699D420CD2A3
:102670000CE0FFF715FE0128024601D8012238E0E0
:10268000F369984235D33D4600E001252C46F369B5
:1026900001349C4202D3012D27D902243046214621
:1026A000FFF7FEFD024638B1B0F1FF3F21D001280F
:1026B0001FD0AC4219D0EAE7304621466FF0704295
:1026C000FFF768FD98B92FB1304639462246FFF72B
:1026D00061FD60B93369F460B3F1FF3F03D0013BA2
:1026E000336101237371224603E0002201E04FF0C1
:1026F000FF321046BDE8F08170B504460D46006813
:10270000A188FFF729FB0146002840F09F80A279AD
:1027100012F0800F29D1E3689D4203D912F0020F15
:1027200008BF1D46A268A160002D5BD02068837899
:102730005E026AB1511E6B1EB3FBF6F3B1FBF6F2FB
:10274000934205D373420B40A360ED1A616913E015
:10275000216981B9FFF782FF0128014607D1A379DA
:102760006FEA43636FEA5363A37102206EE0B0F136
:10277000FF3F58D020616161E9B933E0A37913F0DC
:10278000020F06D02068FFF769FF014628B93546D9
:1027900013E02068FFF784FD0146B1F1FF3F42D00E
:1027A0000129DCD92368DB699942D8D2A368616129
:1027B0009B19A360AD1BB542E0D8A3685B19A36069
:1027C000EB05DB0D73B12068FEF774FF38B9A37910
:1027D00002306FEA43636FEA5363A37136E000EBA4
:1027E000552500E00025A368DB05DB0D23B3A269B6
:1027F000954221D0A37913F0400F0BD0236804F148
:1028000024015878012301F0ADFAA37960B923F0CF
:102810004003A371236804F1240158782A46012358
:1028200001F0C0FA38B1A3796FEA43636FEA5363EA
:10283000A37101200AE0A561A268E3689A4204D965
:10284000A379E26043F02003A371002070BDC0466D
:102850002DE9F84F04469B4600230D46CBF8003087
:102860000068A1889046FFF777FA002840F0C880FA
:10287000A37913F0800F33D113F0020F01D1072099
:10288000BEE0E368AA4618EB030F28BF4FF000082C
:10289000A8E0A268D305DB0D002B40F084802068FF
:1028A0008378013B03EA52235FFA83F9B9F1000F01
:1028B0001CD132B9216959B9FFF7D0FE0146206118
:1028C00003E06169FFF7CAFE0146002900F08E802F
:1028D000012907D1A3796FEA43636FEA5363A371B8
:1028E00002208DE0B1F1FF3F54D06161A37913F074
:1028F000400F0DD0236804F124015878A269012308
:1029000001F030FAA379002845D123F04003A371E8
:10291000266861693046FEF7CDFE38B9A3790230EA
:102920006FEA43636FEA5363A37169E05FEA582576
:1029300009EB00071FD0B27805EB0903934288BF6B
:10294000C9EB0205707851463A46EBB201F00AFA3B
:1029500000BBA369DA1BAA420BD20AEB422104F1A5
:1029600024004FF40072FEF787FEA37923F04003A2
:10297000A3716D022BE0A369BB4213D0A268E36888
:102980009A420FD2707804F124013A46012301F0F3
:1029900009FA38B1A3796FEA43636FEA5363A3710D
:1029A00001202DE0A761A0685146C005C00DC0F50B
:1029B0000073984534BF45461D4604F1240318189A
:1029C0002A46FEF759FEA37943F04003A371A3689A
:1029D000AA445B19A360DBF80030C5EB08085B195B
:1029E000CBF80030B8F1000F7FF453AFE368A26872
:1029F0009A42A37988BFE26043F02003A3710020CC
:102A0000BDE8F88FC3882DE9F04101339FB2054638
:102A10000C46002F64D00369002B61D017F00F081B
:102A200056D1C16801330361006819B90389BB42FB
:102A300056D94DE08378013B13EA171348D1FFF7CD
:102A40002FFC012806464DD9B0F1FF3F4CD0286835
:102A5000C3699E4236D3002C42D0E968FFF7FEFDE1
:102A6000064608B9073040E001283BD0B0F1FF3FEF
:102A70003AD028684146FFF757FB002834D1286830
:102A8000414634304FF40072FEF704FE2C683146A4
:102A90002046FEF70FFE206344460BE0012313712E
:102AA00028680021FFF740FB0134E8B92A68136B5E
:102AB000013313632A68E1B293788B42EED8136B2B
:102AC0005B1A1363EE6028683146FEF7F3FD286158
:102AD0002B68EF80343303EB48136B61002004E074
:102AE000042002E0022000E00120BDE8F081C046A1
:102AF00070B5038CC5884FF6FF718B4214BF194621
:102B000029460446FFF766FD0146C0B921692068E1
:102B1000FFF70AFB014678B962696FF01A03137078
:102B200022681C331371E388AB4208D22046FFF7BA
:102B300069FF01460028E9D0042908BF02210846A0
:102B400070BDC0462DE9F041FF2604460425B0467D
:102B500069E02068FFF7E8FA0546002867D1606958
:102B60000378002B66D0E52BC17A55D011F0080F01
:102B700001F03F0202D00F2A4ED101E00F2A42D1CC
:102B800013F0400F06D003F0BF07E38890F80D80E4
:102B9000238402E0B3423FD13746437B43453BD1D8
:102BA00003780D2203F03F0303FB02F3E669A3F170
:102BB0000D0E4FF0000C0125224B1CF8032083184A
:102BC0005978835C43EA012245B1BEF1FE0F23DC54
:102BD00026F81E2015460EF1010E03E04FF6FF7396
:102BE0009A4219D10CF1010CBCF10D0FE4D103781C
:102BF00013F0400F20D0BEF1FE0F0DDC4FF00003AC
:102C000026F81E3018E01EB9FEF7A0FD804516D04C
:102C10004FF0FF33238412E0FF2620460021FFF708
:102C2000F1FE054618B92169002992D13DB1002372
:102C3000236104E00425FAE77B1EDEB2EDE72846B7
:102C4000BDE8F081DC660000012970B504460D4640
:102C500024D9C369994221D21CE020462946FFF7B6
:102C60001FFB0646E0B1012818D0B0F1FF3F01D1AB
:102C7000012316E0204629460022FFF78BFA03467F
:102C800078B92369B3F1FF3F03D0013323610123F6
:102C900063713546E3699D42DFD301E0022300E022
:102CA0000023184670BDC04670B50446A188006870
:102CB000FFF752F80646002840D1A27912F0800FA3
:102CC00001D002263AE012F0020F33D0A568E36883
:102CD000AB4233D942F02003E560A37135B92068D7
:102CE0002169FFF7B1FF256106461BE02068616995
:102CF000FFF7D6FAB0F1FF3F054601D1012612E0F9
:102D0000012819D02068C3699D4217D261696FF00C
:102D10007042FFF73FFA064628B920682946FFF7B8
:102D200093FF064656B1A3796FEA43636FEA536394
:102D3000A37103E0072601E00226F4E7304670BDE8
:102D400070B500210546FFF7EFF90646002852D17D
:102D50002B78032B47D16B79002B44D005F1340439
:102D60002863314620464FF40072FEF793FC55234A
:102D700085F832326FF0550385F83332A83385F881
:102D8000343085F83530203385F8183285F819321B
:102D90002B69412285F8372085F81A22C3F30722D0
:102DA00085F81C3285F81D221A0C1B0E85F81F327F
:102DB000EB6885F81E22C3F30722612185F82032D3
:102DC00085F821221A0C1B0E85F8361085F81B1287
:102DD00085F8222285F82332687821466A69012322
:102DE00000F0C0FF6E71002168780A4600F08EFF87
:102DF000061E18BF0126304670BDC04670B5054698
:102E0000A9880068FEF7A8FF0346002849D1AA79DF
:102E100012F0200F45D012F0400F0ED02B6805F1B4
:102E200024015878AA69012300F09CFF08B1012011
:102E300038E0AB7923F04003AB712868E969FFF70C
:102E400073F9034600282CD12C6AE37A43F020035F
:102E5000E372EB682377AB891B0A6377EB89A3776F
:102E6000EB7BE3772B69A3762B8A1B0AE3766B8ACD
:102E700023756B8A1B0A637501F02CFCC0F30723D2
:102E8000A075E375030C000E23766076AB792A6893
:102E900023F02003AB71012313712868FFF750FF63
:102EA0000346184670BDC04610B50446FFF7A6FF9E
:102EB00000B9206010BDC0462DE9F04107463B69CE
:102EC0000E4601F10900002B54D0796904460D7BB0
:102ED0004FF0000E1EF80120202A15D0052A08BF49
:102EE000E52215F0080F07D0A2F14103DBB2192B40
:102EF0009CBF02F12003DAB20EF800200EF1010EA1
:102F00000134BEF1080FE5D10B7A202B1AD02E2305
:102F100004F8013B4FF0080E1EF80120202A11D0C2
:102F200015F0100F07D0A2F14103DBB2192B9CBFA3
:102F300002F12003DAB20EF1010EBEF10B0F04F81C
:102F4000012BE9D1CB7A204633728B7FCA7F1B04D9
:102F500043EA02630A7F13434A7F43EA0223336052
:102F60004A7E0B7E43EA0223B380CA7D8B7D43EA0F
:102F70000223F38000210170B569DDB13B69B3B173
:102F80003A8C4FF6FF739A4211D0FF690C4609E064
:102F9000002100F087FE50B1F369013B9C4206DA44
:102FA0006055013437F814000028F1D100E0002406
:102FB00000232B55BDE8F0817FB504460E4600681E
:102FC000A188FEF7C9FE0546F8B926B9204629466C
:102FD000FFF700FB15E001ABA3610D4B2046E36159
:102FE000FFF7B0FD042801D1256100E048B9204673
:102FF0003146FFF761FF00212046FFF703FD04285B
:1030000001D0054601E000232361284604B070BDCD
:10301000340200102DE9F84F00210646FFF7DAFAD6
:10302000002840F08A80FF27BB4630683169FFF7EF
:103030007BF8054600287AD1746922780AB90425FC
:1030400075E0E52AE17A69D011F0080F01F03F033D
:1030500002D00F2B62D101E00F2B48D1F369002B76
:103060005DD012F0400F06D0F38894F80DB002F056
:10307000BF0A338402E0BA4250D1BA46637B5B4553
:103080004CD123780D2203F0BF0303FB02F3D6F8E3
:103090001C90A3F10D0500274FF00108284BFA5CA6
:1030A000A3185978A35C43EA0120B8F1000F0CD0B3
:1030B00000F018FEFE2D804630DC39F8150000F0D7
:1030C00011FE80452AD1013503E04FF6FF73984287
:1030D00024D101370D2FE1D1237813F0400F28D0F0
:1030E000B8F1000F25D039F8153013B316E027B921
:1030F0002046FEF72BFB834519D04FF0FF33B06914
:103100003384C37A13F0010F08D1294601E00B295B
:103110000DD00A5D0B5C01319A42F8D0FF27304692
:103120000021FFF76FFC054600283FF47EAF2846DC
:1031300003E00AF1FF33DFB2F1E7BDE8F88FC046E4
:10314000DC6600002DE9F74F00910B7807462F2B26
:1031500001D05C2B04D1009A00230132009201E0DF
:1031600003689B69009ABB6013781F2B07D8384609
:103170000021FFF72FFA002302467B6137E100268A
:10318000D7F81C80B146009B751CF05C1F281DD928
:103190002F281BD05C2819D0B5F5807F00F0F78070
:1031A000012100F07FFD0446002800F0F0807F2818
:1031B00006D890482146FEF775FA002840F0E780CF
:1031C00029F808402E4609F10209DCE7009A521955
:1031D0001F2894BF04250025012E009208D0022E3E
:1031E00002D008EB460224E0B8F802302E2BF8D1CA
:1031F000B8F800302E2BF4D14FF0000328F8163029
:103200000021BA69B142ACBF20232E2353540131AF
:103210000B29F6D1BA6945F02003D372B5E032F834
:10322000023CA8F10204202B01D02E2B04D1013E38
:10323000023A002EF3D1AAE04FF0000228F816203F
:10324000B86920210B22FEF725FA4FF0000901E0B2
:1032500009F1010938F81930202BF9D02E2BF7D0BD
:10326000B9F1000F01D045F0030504EB460209E077
:10327000023A16F1FF3605D14FF0000A0823D34673
:10328000019303E013882E2BF2D1F5E738F81940AB
:10329000002C54D0202C09F1010903D02E2C04D18C
:1032A000B14502D045F00305F0E7019A934501DAF4
:1032B000B14514D1019B0B2B02D145F003053EE033
:1032C000B14502D045F0030539DC4FEA8A030B22F1
:1032D0005FFA83FAB1464FF0080B0192D6E77F2CD4
:1032E0000CD92046002100F0DDFC044618B1424B09
:1032F000C31813F8804C45F0020524B13F4821461D
:10330000FEF7D0F918B145F003055F2411E0A4F1F0
:1033100041039BB2192B02D84AF0020A09E0A4F13A
:1033200061039BB2192B04D8A4F120034AF0010ACF
:103330009CB2BB6903F80B400BF1010BA6E7BA691D
:103340001378E52B01D105231370019B082B04BFD3
:103350004FEA8A035FFA83FA0AF00C020C2A03D0C0
:103360000AF00303032B01D145F0020515F0020F0B
:1033700009D10AF00303012B08BF45F01005042A08
:1033800008BF45F00805BB69DD72002300E0062395
:10339000DCB24CBB3846FFF73DFEBB690246DB7A28
:1033A00070B1042823D113F0200F03F0040305D0DB
:1033B000BC607C61002B3FF4E2AE15E0B3B116E0D7
:1033C00013F0040F13D17869C37A13F0100F0DD0E6
:1033D000437D027DC17E42EA0322837E43EA0123CC
:1033E00043EA0243BB60CAE6224600E005221046DB
:1033F000BDE8FE8FCC66000024660000D5660000A4
:1034000030B58FB002AD01900C4601A829460122CB
:10341000FEF7F8FC034618BB0BAB0893124B28468B
:1034200001990993FFF78EFE0346C8B9089BDB7A22
:1034300013F0200F13D1079A8AB1E3889375E388BC
:103440001B0AD375A3881376A3881B0A5376029BA5
:1034500001221A710298FFF773FC034600E006236D
:1034600018460FB030BDC0463402001070B58EB0A3
:1034700002AC01900E46154601A821460122FEF736
:10348000C1FC034608BB0BAB0893114B20460199C6
:103490000993FFF757FE0346B8B9089BDB7A13F090
:1034A000200F11D1079878B1C37A05F0270223EADB
:1034B000020332401343C372029B01221A71029825
:1034C000FFF73EFC034600E0062318460EB070BD31
:1034D0003402001030B599B00CAC0190012201A863
:1034E0002146FEF78FFC024600285DD115AB1293F2
:1034F0002F4B204601991393FFF724FE0246002824
:1035000052D1129BDB7A13F0200F01D006224BE040
:10351000119808B9062205E0C37A13F0010F0CBF19
:1035200000220722447D037D90F81BE0817E002A63
:103530003AD143EA042341EA0E2242EA0344C37A21
:1035400013F0100F2AD0012C26D903AD24222846CF
:103550000CA9FEF791F8284602210594FFF73AF8E6
:10356000024608BB2846FFF7EDFA024630B1039B3E
:103570009B699C4202D0042810D015E0072213E07A
:103580002CB10C982146FFF75FFB024660B90C98FE
:10359000FFF7D6FB024607E0022205E00CA8FFF782
:1035A000A7FA02460028EBD0104619B030BDC0463D
:1035B0003402001010B5044686B0019101A82146DE
:1035C0000022FEF71FFC034638BB03ABA361144B7C
:1035D0002046E3610199FFF7B5FD0346D0B9606964
:1035E00080B1C37A13F0100F01D1052315E0437D9C
:1035F000027DC17E42EA0322837E43EA012343EA3D
:103600000243A36023682046DB880021A380FEF7E5
:10361000E1FF0346042B08BF0523184606B010BD82
:103620003402001010B58EB002AC0190214601A802
:103630000022FEF7E7FB864638BB0BAB0893144B22
:10364000204601990993FFF77DFD8646B0B907989A
:1036500018B9049A029B9A6117E0C37A13F0100F0D
:1036600011D0437D027DC17E42EA0322837E43EA7C
:10367000012343EA0243029A936106E0042804D13D
:1036800000F1010E01E04FF0050E70460EB010BDC6
:10369000340200102DE9F043856985B0C7690C221A
:1036A0000646294601A8FDF7E7FF9DF80F3013F005
:1036B000200201D00620C8E013F0010F1CD0EA72EE
:1036C00005F10B08F2610124284601A93A46234678
:1036D000FDF7FCFF3046FFF79DFC28B9631C9CB248
:1036E000642CF1D10730B0E0042840F0AE809DF8A2
:1036F0000F3088F80030F7619DF80F3013F0020F9B
:1037000002D14FF001080DE0002291B237F81130DC
:103710000132002BF9D101F119030D2293FBF2F3D1
:103720001FFA83F830460021FEF754FF002840F0CE
:103730008C800446074630683169FEF7F5FC054683
:1037400000287CD173691B78E52B02D00BB10746AA
:1037500005E007B9F4887B1C9FB2474571D030461D
:103760000121FFF74FF905460028E4D067E0304615
:103770002146FEF72FFF0546002860D1B069FDF70E
:10378000E5FF08F1FF3381469FB230683169FEF7EB
:10379000CBFC0546002852D174690F23D6F81C8053
:1037A000F9B2E3720D2301FB03F384F80D9020734B
:1037B000A076E076A3F10D0E4FF6FF7C244B654515
:1037C00018BF38F81E50C35C18BF0EF1010E01304F
:1037D000E218E5542B0A002D08BF65460D285370EA
:1037E000EAD1654502D038F81E300BB941F04001EE
:1037F000217032680123137130460021FFF702F96E
:103800000546E0B97B1E9FB2002FBED130683169FA
:10381000FEF78AFC054690B97469294620462022A5
:10382000FDF738FF0B222046B169FDF725FFB3698C
:10383000DB7A03F0180323733268012313712846DF
:1038400003E0B8F1010F92D1E0E705B0BDE8F083E5
:10385000DC660000F0B59FB00CAD01900F4601A8EA
:1038600029460122FEF7CEFA0146002840F0858065
:103870000C9B019903931BAB1293414B2846139366
:10388000FFF760FC0146002877D1129BDB7A13F02A
:10389000200F01D0062170E0119909B904316CE0C4
:1038A0000DF1570630460B31152203ACFDF7E4FE4F
:1038B000204629462422FDF7DFFE39462046FFF741
:1038C00041FC014608B9082157E0042855D120469B
:1038D000FFF7E0FE014600284FD1089C1322B11CDF
:1038E00004F10D00FDF7C8FE9DF85730012243F0AA
:1038F0002003E3720C9B1A710E9A059B9A4233D0F7
:10390000E37A13F0100F2FD0E27EA37E217D43EAED
:103910000223627D039D41EA022143EA0101284618
:10392000FDF7C8FE014608B9022126E02846FEF749
:10393000FBFB039A014600BB02F1540463782E2B73
:1039400012D11378032B03D1926A059B934200D0C6
:103950000598C0F30723E376030C23751B0AA076B2
:103960006375039B01221A710CA8FFF7C1F8014689
:1039700018B90C98FFF7E4F9014608461FB0F0BDEE
:10398000340200102DE9F04F93B0059000F0A2FE34
:1039900006AD0746294605A80122FEF733FA04467C
:1039A000002840F0C8800FAB0C93654B2846059962
:1039B0000D93FFF7C7FB044648B1042840F0BB80D5
:1039C0000C9BDB7A13F0200403D00624B3E0082418
:1039D000B1E006982146FEF741FE064608B90724E5
:1039E00081E0012801D102247DE0B0F1FF3F00F029
:1039F000998021460698FEF797FB0446002872D16D
:103A0000069D31462846FDF755FE05F1340821464E
:103A10004FF4007281464046FDF73CFE20210B2208
:103A20004046FDF737FE102385F83F30FAB2C7F362
:103A300007232E2485F83440009285F84A2001930C
:103A4000C7F3074285F84B303F0EF3B2029285F878
:103A50004C20039785F84D70049385F84E30330C55
:103A60001F0A5FFA83FAC6F3072B2022414685F826
:103A70004FB085F848A085F8497005F15400FDF76E
:103A8000FBFD85F855400699089A0B78032B03D166
:103A90008B6A9A4208BF0022C2F3072385F86F3071
:103AA000130C85F868301B0A85F86E2085F869309C
:103AB000069B9D7814E0069A01231371C2F830909A
:103AC00006980021FEF730FB044660B940462146C7
:103AD0004FF40072FDF7DEFD6B1E09F10109DDB246
:103AE000002DE8D120E006983146FFF7ADF822E03E
:103AF0000B9B1022DA72009A9A75019ADA75029A73
:103B00001A76039A5A76049A83F81BB09A7683F849
:103B100014A05F75069B01221A710698FFF710F931
:103B2000044608E00124DEE706A8FFF7B3FD0446DB
:103B30000028D8D1DCE7204613B0BDE8F08FC0469E
:103B4000340200102DE9F0418EB000230DF1080879
:103B5000036001910646154602F01F0701A8414681
:103B600002F01E02FEF74EF90BAB08934C4B099383
:103B7000034620B940460199FFF7E4FA0346079C43
:103B80001BB9002C0CBF0623002315F01C0F4CD0D2
:103B90005BB1042B03D14046FFF77CFD0346079C35
:103BA000002B78D147F0080708E015F0040F01D08A
:103BB000082370E0E37A13F0110F6BD117F0080FB0
:103BC00041D000F087FDC0F30723A073E373030C1B
:103BD000000E627D6074207DE17E237440EA022045
:103BE0000023A27EE37223776377A377E3772375BD
:103BF0006375A376E37642EA0122029B012152EA31
:103C0000004519711FD002982946D0F83080FFF77F
:103C10001BF8034600283ED102986B1EC360414644
:103C2000FEF782FA034670B135E0002B33D1E37A18
:103C300013F0100F01D004232DE015F0020F02D075
:103C400013F0010F26D1029817F01E0F036B18BF57
:103C500047F02007B771F3613462637D227DE17E16
:103C600042EA0322A37E43EA012343EA024333618B
:103C7000A37FE27F1B0443EA0263227F1343627F38
:103C8000306043EA0223C088F3600023B360B3616D
:103C9000B08000E0072318460EB0BDE8F081C046B2
:103CA000340200107F2819D951B1FF2801D9002012
:103CB00014E00B4B03EB4003A3F5807318880DE071
:103CC0000A46074B33F81230834204D04B1C99B29A
:103CD00001328029F5D101F18003D8B27047C04686
:103CE000006700000246002000E00130054B33F879
:103CF00010302BB19A42F8D1034B33F8100000E09A
:103D00001046704700680000E069000010B510B16F
:103D1000012806D012E00846114600F0DDFBC0B2D3
:103D200018E00D4B1B6813F0010F01D0032011E0C8
:103D3000032903D8DFE801F00D08040B042009E093
:103D4000064B1B88138004E0054B1B6800E0012331
:103D50001360002010BDC04600000010E4220010D7
:103D6000E822001010B58E4611461A4618B10128F7
:103D700005D0042012E0704600F0B4F90EE0084BC4
:103D80001B6813F0010F01D0032007E0084611461D
:103D9000724601F071FD003818BF012010BDC04609
:103DA0000000001010B58E4611461A4618B10128C1
:103DB00005D0042012E0704600F0E6F90EE0084B52
:103DC0001B6813F0010F01D0032007E008461146DD
:103DD000724601F095FD003818BF012010BDC046A5
:103DE0000000001010B518B1012804D0012004E033
:103DF00000F0F0F801E0014B186810BD0000001061
:103E000010B518B1012804D0012018E000F0D8FA4C
:103E100015E00B4C236813F0010F0ED001F082FA6D
:103E200001F05EFC48B907480749084A01F0B6FEB0
:103E300018B9236823F001032360014B186810BDF3
:103E400000000010E4220010E8220010C022001040
:103E500010B500F0C5F810BD044B9860034AD36854
:103E600013F0100FFAD19068C0B270470000034001
:103E700010B5FF20FFF7F0FF10BDC046074B322200
:103E800010B51A60FFF7F4FFFFF7F2FFFF2803D029
:103E9000024B1B68002BF7D110BDC0464004001038
:103EA000254B0A2270B51A6005460C46FFF7E0FF65
:103EB000FF2804D1204B1B68002BF7D139E0FE28E6
:103EC00037D11E4A4FEA540E1368072C94BFF446AC
:103ED0004FF0080C43F00F031360604604E0174BEB
:103EE0004FF6FF729A6001380028F8D1134CE3684E
:103EF00013F0040FFAD0CCEB0E039842A1683CBF3C
:103F00004FF6FF73A36001300B0A2A46704502F892
:103F1000013B697001D2551CE8E7236823F00F03C9
:103F200043F007032360FFF7A3FFFFF7A1FF012082
:103F300000E0002070BDC0463C04001000000340BB
:103F400070B505460C46FFF799FFFF2801D0002009
:103F50003DE02046FFF780FFFD2C01D1012036E037
:103F60001B4A0020136843F00F031360184CE368EA
:103F700013F0020FFAD0294611F8012B6B780130AB
:103F800043EA0223FF28A36001D84D1CEEE7104B43
:103F9000DB6813F0100FFAD100E093680C4AD36885
:103FA00013F0040FF9D11368FF2023F00F0343F03F
:103FB00007031360FFF750FFFF20FFF74DFFFFF7E8
:103FC00057FF00F01F00052814BF0020012070BD1E
:103FD00000000340014B18687047C0460400001001
:103FE0000C4A1368DBB213B1013BDBB213600A4A1F
:103FF0001368DBB213B1013BDBB21360074B002245
:1040000019681A6021B9064A136803F0F9031360AE
:104010007047C0463C0400104004001048040010E3
:104020000400001010B50020402100F01FFD10BD5D
:1040300010B5FFF7F7FFFFF71BFF10BD10B500200D
:104040004FF4001100F012FD014B00221A7010BD58
:104050004504001010B50020402100F00FFD10BDF8
:1040600010F0800F70B504460D4607D07720002170
:10407000FFF7F6FF012834D804F07F04FFF7D2FFE2
:10408000FFF7E8FFFFF7FAFEFF2801D0FF2028E046
:104090002046FFF7E1FE280EFFF7DEFEC5F30740DE
:1040A000FFF7DAFEC5F30720FFF7D6FEE8B2FFF709
:1040B000D3FE402C01D1952003E0482C14BF0120F1
:1040C0008720FFF7C9FE4C2C01D1FFF7D1FE0A244F
:1040D000FFF7CEFE10F0800F03D0631EDCB2002C81
:1040E000F6D170BD70B506460D4614460AB90420D7
:1040F00044E0234A136813F0010F01D003203DE090
:10410000136813F0040F01D0022037E01D4B1B7819
:1041100013F0080F08BF4D02012C0CD1294658207E
:10412000FFF79EFF054620BB3046FE21FFF708FF44
:10413000F8B12C461DE013F0060F03D0D72021461E
:10414000FFF78EFF59202946FFF78AFF88B93046CE
:10415000FC21FFF7F5FE28B1631EDCB214B106F5B1
:104160000076F4E70020FD21FFF7EAFE002808BFF3
:104170000124FFF75DFF201E18BF012070BDC0465F
:10418000040000104404001070B5054614460AB936
:10419000042034E01A4B1B6813F0010F01D00320F8
:1041A0002DE0184B1B7813F0080F08BF4902012AB5
:1041B0000CD15120FFF754FF0646D8B928464FF4DA
:1041C0000071FFF76DFEA8B1344613E05220FFF7EF
:1041D00047FF78B928464FF40071FFF761FE28B118
:1041E000631EDCB214B105F50075F3E74C20002125
:1041F000FFF736FFFFF71CFF201E18BF012070BD20
:10420000040000104404001010B510B9034804491C
:1042100001E00248034900F033FF10BD00000340F5
:10422000801A060040787D0170B58AB000241523FD
:1042300001250DF11F003A4E8DF820308DF82140F8
:104240008DF823508DF822408DF81F4000F0CCFBF4
:10425000FFF7F4FE2A4620464FF40011347000F0B8
:10426000F3FB20464FF4001100F008FC2D4B1922FF
:1042700035701A602B4B1C68002CFBD106238DF87F
:1042800020308DF821408DF823408DF822408DF8A4
:104290001F40FFF7C7FE0122402120460DF11F04F9
:1042A00000F0D2FB204600F09FFB022507232046AA
:1042B0008DF820308DF8215000F096FB0823204621
:1042C0008DF8203000F090FB0923204601AC8DF8DA
:1042D000203000F089FB204600F0A8FE124821465D
:1042E00000F004FF1420294600F0BCFA0E4801211A
:1042F00000F0A8FE0C4BDB6813F0100FFAD103E0BE
:104300000A4B9B680993099B074BDB6813F0040079
:10431000F6D1FFF779FFFFF785FE0AB070BDC04602
:10432000450400103C0400100000034000800840D9
:1043300013B5164C0021204600F084FE204600F004
:104340008BFE0DF10304032300228DF80630204676
:10435000DB188DF805208DF807208DF803208DF8E7
:10436000043000F041FB072320468DF8043000F0B4
:104370003BFB082320468DF8043000F035FB092371
:1043800020468DF8043000F02FFB1CBD00000340D8
:1043900010B50A4C236813F0010F05D1FFF75AFE40
:1043A000FFF76CFDFFF744FEFFF7C2FFFFF746FE85
:1043B000236843F00103236010BDC04604000010D1
:1043C00073B54248036813F0020401D000687BE033
:1043D000FFF72AFF2046FFF717FF0A24FFF748FDE3
:1043E000631EDCB2002CF9D140202146FFF738FED5
:1043F000012856D1364B642247301A604FF4D571EC
:10440000FFF72EFE012830D1FFF732FD01ABE0545B
:104410000134042CF8D19DF80630012B41D19DF8D0
:104420000730AA2B3DD12A4C236833B1E9204FF045
:104430008041FFF715FE0028F5D12368002B30D00E
:104440007A200021FFF70CFE58BB0446FFF710FD51
:1044500001ABE0540134042CF8D19DF8043013F082
:10446000400F0CBF04240C241CE0E9202146FFF778
:10447000F7FD01288CBF4125E9258CBF01240224CA
:10448000134E33682BB128460021FFF7E9FD0028C1
:10449000F6D133682BB150204FF40071FFF7E0FDE7
:1044A00000B100240B4B1C70FFF7C2FD44B1074A5A
:1044B0000120136823F001031360FFF7A5FE01E05C
:1044C000FFF766FF014B18687CBDC0460400001072
:1044D0003C0400104404001004287FB50D4616D19A
:1044E0000B78012B0BD002D3022B0BD002E0764BC2
:1044F000187808B90446E3E0FFF74AFF05E0FFF744
:1045000093FE02E0704B1B784B700024D8E06F4B99
:104510001B6813F0010F01D00320D2E00E2809D848
:10452000DFE800F00A124D51080808080808A2A6A2
:10453000A8B0BD000424C1E0FFF78CFDFFF79EFC8E
:10454000FF2800F0B880B8E049200021FFF788FD7F
:104550000446002840F0B18068461021FFF7A0FC17
:10456000002800F0AA809DF800309DF809109B09F2
:10457000012B9DF8080005D14B1C03EB00239BB2D7
:104580009B023FE09DF807209DF80630920002EB69
:10459000901203F00303013202EB83229DF80530F1
:1045A00001F0030103F00F03023303EB41039DF815
:1045B0000A1003EBD113093B9A402A607EE04FF4C6
:1045C00000730B8077E0424C237813F004011BD07A
:1045D000CD200021FFF744FD00286ED1FFF748FCF5
:1045E00068461021FFF75CFC002866D03024FFF7F6
:1045F0003FFC631EDCB2002CF9D19DF80A20102389
:10460000120993402B6059E04920FFF729FD064627
:10461000002852D168461021FFF742FC00284CD0F8
:1046200023789DF80B2013F002009DF80A300DD07E
:1046300003F03F03D20902EB43029DF80D30013233
:104640009B09013B9A4034462A6037E002F003019F
:104650005209C3F3840302EBC1020133013202FBAE
:1046600003F204462A6029E0194B1B780B7022E004
:10467000492000E04A200021FFF7F2FCE8B9284673
:10468000102115E07A200021FFF7EAFCA8B90446C2
:10469000FFF7EEFB60550134042CF9D10BE0CD207F
:1046A0000021FFF7DDFC40B9FFF7E2FB284640217F
:1046B000FFF7F6FB08B1002400E00124FFF7B8FC87
:1046C000204604B070BDC046450400100400001030
:1046D0004404001000B589B06846FCF755FF069BFE
:1046E000039A5B0543EA0243029A079843EAC2230E
:1046F000019AA0F5F66043EA4213009A0C3843EAA7
:10470000520343EA406009B000BDC046334B20224B
:10471000C3F8A0213148D0F8A03113F0400FF9D0F0
:104720000323C0F804310023C0F8A831C0F8AC312D
:104730002B4B0121C0F80C11AA22C0F8843055235C
:10474000C0F88C20C0F88C30C0F88010C0F88C20E5
:10475000C0F88C30214AD2F8883013F0806FF9D03D
:104760000323C2F88030A733C2F88C305523C2F837
:104770008C301A48D0F8883013F0407FF9D02323CA
:10478000C0F8A430AA2155220123C0F8AC10C0F80B
:10479000AC20C0F8A030C0F8AC10C0F8AC200F4A74
:1047A000D2F8A83013F4806FF9D00323C2F8A030F8
:1047B000A733C2F8AC305523C2F8AC30074AD2F860
:1047C000A83013F4407FF9D0064BC2F8C430002360
:1047D000C2F8C83143F23A031360704700C00F407B
:1047E00063000500DE8728040A4B4FF0FF310122E9
:1047F000C3F88010C3F88420C3F88011C3F8842163
:104800008918044B0022CB180131202983F800239A
:10481000F7D1704700E100E00B494FF020634B6097
:104820000A4B00228A60CB600A614A610649002077
:1048300053180132202A1876F8D14FF0FF3348621E
:104840008B62CB620B63704700ED00E00000FA055D
:1048500020F04040024B20F07F0098607047C04637
:1048600000ED00E01F2800B58C46864612D9AEF157
:104870002002032393400CFA02F20F48D0F8AC1147
:1048800021EA0301C0F8AC11D0F8AC311A43C0F8EA
:10489000AC2110E0032303FA00F30749D1F8A82163
:1048A00022EA03020CFA00F3C1F8A821D1F8A821EA
:1048B0001343C1F8A83100BD00C00F401F2803D822
:1048C000064BD3F8A83103E0044B2038D3F8AC31C1
:1048D00033FA00F000F003007047C04600C00F40FC
:1048E000074B10B51C68FFF7E9FF034618B1032812
:1048F00002D1431D00E00423B4FBF3F010BDC04619
:1049000008000010012907D109490A4BD1F8C42039
:1049100000EA0303134308E049B90549054BD1F800
:10492000C42002EA030323EA0003C1F8C43070473D
:1049300000C00F40DEF7EFEF0F2900B594464FEAB5
:10494000400E02D910390EF1010E490003238B40AD
:104950000CFA01F1064850F82E2022EA030240F832
:104960002E2050F82E300B4340F82E3000BDC046AC
:1049700000C002400F2900B594464FEA400E02D90C
:1049800010390EF1010E490003238B400CFA01F19E
:10499000064850F82E2022EA030240F82E2050F854
:1049A0002E300B4340F82E3000BDC04640C00240C0
:1049B000012A00B58E46114608D101FA0EF1094BC5
:1049C00053F820200A4343F8202009E0012303FA8A
:1049D0000EF3044951F8202022EA030241F8202076
:1049E00000BDC04668C0024010B504466178A27898
:1049F0000078FFF7A1FF20786178E278FFF7BAFF2F
:104A0000207861782279FFF7D3FF10BD042806D8FB
:104A1000DFE800F007090B0D0300064808E000205E
:104A200006E0054804E0054802E0054800E00548C6
:104A30007047C04680C0092000C0092020C009205E
:104A400040C0092060C0092070B514460D46FFF72C
:104A5000DDFF024640B11CB1036845EA030302E0F2
:104A6000036823EA0503136070BDC04610B50C4609
:104A7000FFF7CCFF00B1846110BDC04610B50C46F5
:104A8000FFF7C4FF00B1C46110BDC04610B5FFF709
:104A9000EDFF10BD10B5FFF7F1FF10BD074B9842B9
:104AA00001D1002009E0064B984201D1012004E029
:104AB000044B984214BF03200220704700C00040FE
:104AC00000000140008009402DE9F0410546FFF754
:104AD000E5FFAF680128064607F00E040BD154B974
:104AE000254A137E1846254B1B687BB9536823F073
:104AF000880353602BE0062C0ED12B7D13F09E0013
:104B000025D01F4B03EB0613DB680BB198471EE063
:104B10006B6823F0040319E0042C01D00C2C0AD19B
:104B2000174B03EB06135B680BB1984703E06B6808
:104B300023F001036B60022C09D1114B3201D358D1
:104B40000BB1984703E06B6823F002036B6017F426
:104B500040700ED02B6A40EA03032B62084B03EB34
:104B600006139A680AB1904703E06B6823F4407318
:104B70006B60BDE8F081C046000001404C040010AD
:104B8000500400104FF416530360032343710023B5
:104B9000037183717047C0460170704703781846EF
:104BA0007047C0460139052907D8DFE801F0080A37
:104BB0000C0E10034FF400710BE0012109E00221FB
:104BC00007E0042105E0082103E0802101E04FF423
:104BD0008071012A03D1436841EA03030DE0084BC9
:104BE0006FEA010198420BBF4268426840F28F337E
:104BF00040F2073302EA03030B4043607047C046AC
:104C000000000140007DC0F3801080F0010070477B
:104C1000CB78012B07D004D3022B14BFC1228122F1
:104C200002E0012200E041224B78012B0B7808BF03
:104C300042F00402012B8B7808BF42F00202012BE4
:104C400008BF42F0080202F0CF0303727047C0466B
:104C500000238370C3700133037043707047C046F4
:104C600001290BBF90F8303090F8303043F08003CA
:104C7000002380F830307047012B2DE9F0410646C3
:104C800004D00F4614464FF0000831E00F4614469A
:104C90004FF0000815E06AB3013A337D13F0200F9E
:104CA000F9D03AB31025304617F8011BFFF774FF0F
:104CB000013C15F1FF3508F1010802D0002CF2D1BA
:104CC00018E0BCB14FF0FF32E7E7337D13F0200F5F
:104CD00010D01025304617F8011BFFF75DFF013C8F
:104CE00015F1FF3508F1010802D0002CF2D101E0E6
:104CF000002CEAD14046BDE8F081C046012B2DE9E9
:104D0000F04104460F46164601D000251BE0002561
:104D10000BE0DAB1013A237D13F0010FF9D0AAB10B
:104D20002046FFF73BFFE8550135B5420DD04FF067
:104D3000FF32F0E7237D13F0010F07D02046FFF785
:104D40002DFFE8550135B542F4D135462846BDE87A
:104D5000F081C04670B50C461546FFF79FFE042C47
:104D600019D8DFE804F003080C1116000A4B03EB16
:104D700000135D600FE0084B0201D5500BE0064BBD
:104D800003EB00139D6006E0034B03EB0013DD60B3
:104D900001E0024B1D6070BD500400104C04001077
:104DA00010B50248FFF790FE10BDC04600C000409D
:104DB000464B2DE9F74F984204460D4601D1062097
:104DC0000AE0434B984201D1082005E0414B98424C
:104DD00001D1302000E03220FFF782FD4FF00009C2
:104DE00000094FF0010B01900646CA464846DFF81D
:104DF000E8805F4665E00CEB0703B6FBF3FEBEFB05
:104E0000F5F105FB11E3B3EB550F88BF0131CA1E65
:104E10004FF6FC739A4212D8BEFBF1F3AB4201D8B5
:104E2000E81A00E0581B404509D220B9BB46E146CC
:104E30008A4680460EE0BB46E1468A4680460CF133
:104E4000010CBCF1100FD6D120B1019B0137F6182F
:104E5000102F36D1032305FB03F36422B3FBF2F3D7
:104E6000984501D300202FE0194B4FEA1A229C42AB
:104E70005FFA8AF14FEA0B1009F00F050FD1237B7F
:104E800043F080032373D3B223712170237B03F09B
:104E90007F03237300F0F0032B43A3620FE0237B17
:104EA00043F080032373D3B223712170237B03F07B
:104EB0007F03237340EA0503DBB284F82830012026
:104EC00002E04FF0000C96E7BDE8FE8F00C0004006
:104ED0000000014000800940A0860100474B70B5EA
:104EE000984204460D4603D108200121FFF70AFD30
:104EF000434B9C4208D110200121FFF703FD0723FB
:104F00002372002323720FE03E4B9C4202D14FF0EC
:104F1000807004E03C4B9C4222D14FF00070012194
:104F2000FFF7F0FC1CE02378237D13F0010FFAD18A
:104F30006FF07F0384F83030237D13F0200FFBD017
:104F4000002384F83030636023732362237484F871
:104F50004C3084F8543084F85030237E237D1DE09B
:104F6000072323720023237200E02378237D13F0AC
:104F7000010FFAD16FF07F0384F83030237D13F0F6
:104F8000200FFBD0002284F830206260227322625E
:104F9000237D1D4B9C4208BF84F8242020462968AD
:104FA000FFF706FF237B03F0C0026B79012B03D0D0
:104FB0000AD3022B03D005E042F0010204E042F0E4
:104FC000020201E042F003022B797BB1032B42F095
:104FD000080206D0042B07D0022B07D142F01002A2
:104FE00004E042F0200201E042F03002AB79012BF4
:104FF00008BF42F00402D3B2237370BD00C000406A
:10500000000001400080094000C00940054B984263
:1050100001D1002005E0044B984214BF4FF0FF304F
:10502000012070470080084000000340044B00222C
:1050300043610723426082600360C260026170477F
:1050400040420F0001290BBF4368436843F002034D
:1050500003F00D0343607047074B10B5984202D12F
:105060004FF4001004E0054B984204D14FF48060E7
:105070000021FFF747FC10BD0080084000000340FE
:10508000184B70B5984204460D4601D12A2003E022
:10509000154B984224D11420FFF722FC4FF0020E4A
:1050A00000224FF0FF330CE0511C0EFB01F3B0FB6C
:1050B000F3F3AB4207D9FF2992BF0A460EF1020E65
:1050C0000022AB42F0D8236802F0FF0203F0FF0396
:1050D0002360236843EA022323600EF0FF03236169
:1050E00070BDC04600800840000003401A4B70B5F8
:1050F000984205460C4602D14FF4001004E0174BCD
:10510000984227D14FF480600121FFF7FBFB6268D2
:10511000A3682846134322691343226813431B04E0
:105120001B0C2B60FFF772FF23680D49072B04D976
:105130000C2300FB03F3012203E00C2300FB03F329
:1051400000225A50E368284603F00F036B60616940
:10515000FFF796FF70BDC046008008400000034086
:105160009004001001290BBF037A037A43F0010376
:1051700003F01203037270470B7B03F01F0380F8E8
:105180002C300B7C03F0070380F830308B8ADB0572
:10519000DB0D83860B7A03F01F0380F828300B7930
:1051A00003F03F0380F824300B7803F03F0380F8CE
:1051B00020300B7E03F00F0380F838308B8B1B05FB
:1051C0001B0D83877047C04601290BBF037A037A02
:1051D00003F0030343F0100303727047013921F019
:1051E0007F41012A0CBF4FF40032002221F47E01DE
:1051F0000A4302647047C04610B5012104464FF4CB
:105200000070FFF77FFB00224FF0FF332270227205
:1052100022732374226410BD82B0002301938000A6
:1052200002E0019B01330193019B8342F9D302B059
:105230007047C04613B50023044605E04FF47A706A
:10524000FFF7EAFF019B01330193019BA342F5D3D2
:105250001CBDC046214910B5CA680B6913EA020497
:105260003BD014F0400F2AD04B6D13F4803F1ED07A
:105270000B6D13F4004F03D0194B01221A6012E09A
:105280004B6D184813F0010207D002685AB9164B4B
:105290001A70164B1A60013202E003681BB10A61F2
:1052A0000F4B02601A600D4B4FF480325A650B4A67
:1052B000536D13F4801F1CBF4FF48013536514F01B
:1052C000020F08D0094B01221A60094B064A1B68DD
:1052D0001B681B0F1370014BDC6010BD00C0005039
:1052E000AC04001004230010A8040010B004001047
:1052F000142300100023036043608360C360704781
:105300000023036043608360C36070470022002372
:1053100040F822300132202AC0F88030C0F88430B2
:10532000F5D17047404A2DE9F047D2F8C43043F038
:105330000043C2F8C4303D4B1F22C3F8F42F3B4F4B
:10534000D7F8F83F13F01F0FF9D0394A0323C7F8F5
:105350001031D168374B384E01EA0303D360D1686E
:10536000364BDFF8109141EA0303D3605368DFF84E
:10537000088123F0705353605368314843F0A053C1
:105380005360304B304D336003F58073C9F8003003
:105390001033C8F800302D4B2D4C18602D4B2E4A81
:1053A0002B60103323602D4B1A602D4B80321A6016
:1053B0002C4B02F563621A60FFF7A2FF2868FFF723
:1053C0009FFF2068FFF79CFFD9F80000FFF792FFCE
:1053D000D8F80000FFF78EFF3068FFF797FF322004
:1053E000FFF728FF0021012379603962B962BB60B1
:1053F0001D4B7B637B6823F0C00343F080037B601D
:105400004FF480333B653368BB61FA68FB68134334
:10541000FB60164B164A3B614FF08073136082F8B5
:105420001813BDE8F087C04600C00F4000C0005010
:1054300000C002400FCF3FFFF422001090208000F8
:1054400020C1072000C007200C23001010230010EB
:10545000FC22001030C1072050C107200823001093
:10546000F022001000230010DF2E78274200008079
:1054700000E100E014230010F8220010034A136832
:10548000002BFBD0002313607047C046B00400100F
:105490007FB59E46274B04461E680191B0421546D3
:1054A00007D1019B13B903F1007303E04FF0407380
:1054B00000E000230393204B00201968019B039A0E
:1054C000134343F0704343F480230B601B4B1A6873
:1054D0006B1E734410604D6050608A609060CB60BA
:1054E000D060A36803F002031943B442A160626074
:1054F000E06009D1124B1C629A6842F002029A6085
:105500005A6842F0100208E00D4B9C629A6842F023
:1055100004029A605A6842F020025A60FFF7AEFF18
:10552000084B1878002814BF4FF0FF30002004B05B
:1055300070BDC0461023001014230010F822001084
:1055400000C00050A804001082B001919DF8043002
:1055500003709DF8053043709DF8063083709DF808
:105560000730C37002B07047037882B08DF8063000
:1055700043788DF80730BDF8060002B07047C0468A
:1055800082B0ADF806109DF8063003709DF8073024
:10559000437002B07047C04670B594461E46BDF8D1
:1055A00010504FF0000E05E0226800230EF8023084
:1055B0000EF1010EAE450B4CF6D12368187023682E
:1055C0005970206861460230FFF7DAFF20683146E3
:1055D0000430FFF7D5FF206829460630FFF7D0FFDB
:1055E00070BDC0460823001073B5114DBDF81840BA
:1055F000104E0094FFF7D0FF08232868002132687E
:10560000FFF746FF034688B944B1234628684FF4A4
:1056100000213268FFF73CFF034638B900221346E9
:1056200028684FF48011FFF733FF034618467CBD0E
:10563000102300100823001073B5114DBDF8184059
:10564000104E0094FFF7A8FF082328680021326855
:10565000FFF71EFF034688B944B1234628684FF47C
:1056600080113268FFF714FF034638B90022134651
:1056700028684FF40021FFF70BFF034618467CBD56
:105680001023001008230010C37882B08DF8043076
:1056900083788DF8053043788DF8063003788DF8DF
:1056A0000730019802B0704782B001919DF8073031
:1056B00003709DF8063043709DF8053083709DF8A7
:1056C0000430C37002B0704782B0ADF806109DF888
:1056D000073003709DF80630437002B07047C04633
:1056E00073B5374B1B68002BFBD06420FFF7A2FD7E
:1056F000344B10225A65334A536D13F01004FAD11B
:105700004FF48013304E5365C820FFF793FD2F4DA3
:1057100032684FF4002313602A6808230093019233
:105720002346802006214FF48072FFF785FF044650
:10573000002842D12B683268DB7905211B041360F5
:105740000122034600900190FFF74EFF0446002817
:1057500033D10230FFF76EFD336880201A680926C6
:1057600042F001021A602B68062101934FF4007287
:1057700023460096FFF760FF0446F0B92868023020
:10578000FFF7F2FE2B68009001938020234606214C
:105790004FF40072FFF750FF044670B900F022FA90
:1057A000044650B931460122034600900190FFF7AC
:1057B0001BFF04466420FFF73DFD20467CBDC0462C
:1057C000AC04001000C0005010230010082300108B
:1057D0002DE9F0479DF820509DF824908246904690
:1057E0001F460020224B1A680023835401301F28D3
:1057F000F8D1032D07D001D84DB10CE0122D04D003
:10580000252D06D007E0122607E0242605E02E46C7
:1058100003E0082601E001FB08F6154C1549206855
:10582000FFF792FE206800210430FFF78DFE20680C
:1058300031460830FFF788FE2068012F08BF002797
:10584000032D077380F80E90C57301D0122D02D17D
:10585000F3B2C37403E011305146FFF725FF044B48
:10586000414618681630FFF72FFFBDE8F087C046A5
:1058700008230010555342432DE9F3412A23DFF852
:105880007C800E4600931A4D0A231A4CD8F800105B
:105890000193174600233246FFF79AFF1F2328681B
:1058A0004FF400212268FFF7F3FD0346E0B9D8F872
:1058B0000030286803FB06F34FF400213A46FFF757
:1058C000E7FD034680B90C4B4FF48011186822683D
:1058D0000D23FFF7DDFD034630B923681B7B002B4A
:1058E0000CBF00236FF009031846BDE8FC81C046D9
:1058F000FC220010082300100C23001018230010B5
:10590000214BF7B51D680C46174605FB01FE1146F5
:10591000002203E0002301F8013B01327245F9D176
:10592000282300930A232946019322467633FFF762
:105930004FFF164D164B4FF4002118682A681F239D
:10594000FFF7A6FD0346E0B90F4B124E1B68306807
:1059500003FB04F34FF480113A46FFF799FD034629
:1059600078B90D2330684FF480112A68FFF790FD55
:10597000034630B92B681B7B002B0CBF00236FF054
:1059800009031846FEBDC046182300100823001066
:10599000FC2200100C23001037B51223009304469C
:1059A000062300200146024601937A33FFF710FFD9
:1059B000194D1A4B4FF4002118682A681F23FFF76E
:1059C00067FD034630BB164B4FF4801118682A68F8
:1059D0002423FFF75DFD0346E0B94CB10E4B0130C7
:1059E0001A68242812F8011B04F8011B1A60F5D16B
:1059F0000B4B094C18684FF480110D232268FFF7F8
:105A000047FD034630B923681B7B002B0CBF0023E6
:105A10006FF0090318463EBD08230010FC22001059
:105A20000C23001013B50623002001460246019303
:105A3000012300900F4CFFF7CBFE0F4B4FF40021DA
:105A4000186822681F23FFF723FD034680B90B4B1C
:105A50004FF48011186822680D23FFF719FD0346E3
:105A600030B923681B7B002B0CBF00236FF00903A8
:105A700018461CBD08230010FC2200100C23001047
:105A800037B5032300200093DB180146024601933B
:105A90007A33FFF79DFE134C134B4FF40021186827
:105AA00022681F23FFF7F4FC0346C8B90F4D1223E9
:105AB00028684FF480112268FFF7EAFC034678B9A2
:105AC0000D2328684FF480112268FFF7E1FC03469C
:105AD00030B923681B7B002B0CBF00236FF0090338
